:020000040800F2
:10000000A0040020010100089F0800086F050008F7
:100010009B080008F7010008E1100008000000003C
:10002000000000000000000000000000150D0008A6
:100030005D03000800000000B7080008510E00082A
:100040001B0100081B0100081B0100081B01000820
:100050001B0100081B0100081B0100081B01000810
:100060001B0100081B0100081B0100081B01000800
:100070001B0100081B0100081B0100081B010008F0
:100080001B0100081B0100081B0100081B010008E0
:100090001B0100081B0100081B0100081B010008D0
:1000A0001B0100081B0100081B0100081B010008C0
:1000B0001B0100081B0100081B0100081B010008B0
:1000C0001B0100081B0100081B0100081B010008A0
:1000D0001B0100081B0100081B0100081B01000890
:1000E000750300081B0100081B010008DFF80CD095
:1000F00000F050F800480047F9130008A004002061
:100100000648804706480047FEE7FEE7FEE7FEE7B1
:10011000FEE7FEE7FEE7FEE7FEE7FEE7550E000816
:10012000ED000008421C10F8011B0029FBD1801AC9
:1001300070472DE9F05F0546002092469B468846B1
:100140000646814640241BE0284641464746224653
:1001500000F041F853465A46C01A914110D3114657
:100160001846224600F028F82D1A67EB01084F4682
:1001700022460120002100F01FF817EB00094E4134
:10018000201EA4F10104DFDC484631462A464346DE
:10019000BDE8F09F064C074D06E0E06840F0010323
:1001A00094E8070098471034AC42F6D3FFF7A2FF5B
:1001B000B4140008D4140008202A04DB203A00FA02
:1001C00002F1002070479140C2F1200320FA03F3AE
:1001D000194390407047202A04DB203A21FA02F0AC
:1001E0000021704721FA02F3D040C2F12002914071
:1001F00008431946704700BFFEE710B500F07CFBCE
:100200004FF4803000F032FC00BF00F08DFC01287C
:10021000FBD1102000F0B0F8022000F0BBF84FF442
:10022000E0114FF4803000F065FC012000F05CFC30
:1002300000BF392000F0F0FB0028FAD0022000F0C7
:1002400067FC002000F006FC4FF4806000F034FCF6
:10025000002000F03DFC022000F05AFC10BD0EB55D
:100260000121084600F028FB0020ADF802004FF6FF
:10027000FF70ADF804004720ADF800000020ADF895
:1002800006008DF8080069464FF0804000F01EFE21
:100290000121880700F00EFE0EBD000000B585B0FC
:1002A000012144F2080000F017FB0121084600F08C
:1002B00013FB0121244800F005F90121042000F07E
:1002C00001F94020ADF8000003208DF8020018204D
:1002D0008DF8030069461D4800F068F88020ADF8ED
:1002E000000003208DF8020004208DF80300694609
:1002F000164800F05BF84FF4964001900020ADF8EE
:100300000800ADF80A00ADF80C000C20ADF80E00A6
:100310000020ADF8100001A90D4800F071FE40F278
:1003200025510B4800F024FE012240F225510848D7
:1003300000F040FE0121064800F023FE252000F0D9
:10034000AFFA05B000BD000000023000000C014013
:100350000038014010B500F0E9F910BD70470021E8
:100360004FF08042918400BF4FF08041898C8142E0
:10037000FAD37047704700000549096821F0100161
:10038000034A11601146096801431160704700007B
:100390000020024001460020034A106800F03800A7
:1003A0000843106070470000002002402DE9F04132
:1003B000024600250026002000230024002791F893
:1003C00003C00CF00F0591F803C00CF0100CBCF149
:1003D000000F03D091F802C04CEA050591F800C067
:1003E000BCF1000F31D0146800202BE04FF0010C5D
:1003F0000CFA00F3B1F800C00CEA03069E4220D1CB
:1004000083004FF00F0C0CFA03F7BC4305FA03FC12
:100410004CEA040491F803C0BCF1280F06D14FF058
:10042000010C0CFA00FCC2F814C00AE091F803C0F9
:10043000BCF1480F05D14FF0010C0CFA00FCC2F8DA
:1004400010C0401C0828D1D31460B1F800C0BCF122
:10045000FF0F34DD546800202EE000F1080C4FF04F
:10046000010808FA0CF3B1F800C00CEA03069E423A
:1004700021D183004FF00F0C0CFA03F7BC4305FAAF
:1004800003FC4CEA040491F803C0BCF1280F05D129
:1004900000F1080C08FA0CF8C2F8148091F803C0B7
:1004A000BCF1480F07D100F1080C4FF0010808FA21
:1004B0000CF8C2F81080401C0828CED35460BDE868
:1004C000F0810000F0B50A46002300240021002539
:1004D00000F00046B6F1004F02D11D4EF16901E077
:1004E0001B4E7168C0F3034583B200F44016B6F5A5
:1004F000401F08D121F07061154E766826F07066B5
:10050000134F7E6012E000F48016B6F5801F06D10E
:10051000032606FA05F4A14341F0706106E0460D9A
:10052000360103FA06F6B14341F0706122B1460D7F
:10053000360103FA06F6314300F00046B6F1004FEB
:1005400002D1034EF16101E0014E7160F0BD000087
:10055000000001400246002093680B400BB10120CF
:1005600000E000207047416170470161704700BFA3
:10057000FEE7000010B500F0B7FB4FF480510C48C7
:10058000FFF7F1FF4FF400410948FFF7ECFF0220AD
:10059000FFF7E5FE4FF480510548FFF7E6FF022024
:1005A000FFF7DDFE4FF480510148FFF7DCFF10BD7F
:1005B0000008014010B500F097FB4FF480510C4843
:1005C000FFF7D1FF4FF400410948FFF7CEFF0220AB
:1005D000FFF7C5FE4FF480510548FFF7C6FF022024
:1005E000FFF7BDFE4FF480510148FFF7BCFF10BD7F
:1005F000000801402DE9F04104460F4615461E460D
:1006000000F0B4F8204600F05FF800BF00F0EAF810
:100610000028FBD1384600F057F800BF00F0E2F8A0
:100620000028FBD100F0A2F844F0010000F04CF8E3
:1006300000BF00F0D7F80028FBD10DE0012E04D157
:10064000012000F011F8287003E0002000F00CF801
:100650002870701EC6B26D1C002EEFD100F0A6F8F7
:100660000020BDE8F081000070B50546002400F0D0
:1006700027FB00261BE04FF480511248FFF773FF61
:100680000220FFF76CFE4FF480510E48FFF76DFF1C
:100690000220FFF764FE6006040E4FF40041094893
:1006A000FFF758FF08B144F00104701CC6B2082ED1
:1006B000E1DB15B9FFF75EFF01E0FFF77BFF2046A6
:1006C00070BD00000008014070B5044600F00CFB4E
:1006D0004FF480511448FFF746FF002521E004F055
:1006E000800028B14FF400410F48FFF73EFF04E0BF
:1006F0004FF400410C48FFF736FF0220FFF72FFEB2
:100700004FF480510848FFF730FF0220FFF727FE23
:100710004FF480510448FFF726FF6006040E681C62
:10072000C5B2082DDBDB70BD0008014008B5012112
:10073000042000F0D1F84FF41040ADF80000142070
:100740008DF8030003208DF8020069460648FFF784
:100750002DFE4FF480510448FFF707FF4FF400418E
:100760000148FFF702FF08BD0008014010B500F086
:10077000BBFA4FF480510C48FFF7F7FE4FF40041ED
:100780000948FFF7F2FE0420FFF7E9FD4FF40041AE
:100790000548FFF7E8FE0420FFF7E1FD4FF4805124
:1007A0000148FFF7E0FE10BD0008014010B500F061
:1007B0009BFA4FF400410A48FFF7D5FE0420FFF7EB
:1007C000CEFD4FF400410648FFF7CFFE4FF48051B5
:1007D0000348FFF7CAFE0420FFF7C1FD10BD00006B
:1007E0000008014010B5002400F06AFA4FF40041FF
:1007F0001248FFF7BAFE0120FFF7B1FD4FF4805118
:100800000E48FFF7B2FE0120FFF7A9FD07E0601CCC
:10081000C4B2FA2C03DDFFF7C9FF012010BD4FF46D
:1008200000410648FFF796FE0028F0D14FF48051B2
:100830000248FFF798FE0020F0E7000000080140A2
:100840002DE9F04180460D4616461F46FFF78EFF04
:100850004046FFF739FF00BFFFF7C4FF0028FBD178
:100860002846FFF731FF00BFFFF7BCFF0028FBD190
:1008700000240CE0305DFFF727FFFFF7B3FF20B146
:10088000FFF794FF0120BDE8F081601CC4B2BC42B8
:10089000F0DBFFF78BFF0020F5E700BFFEE77047B6
:1008A00000F01F02012191404209920002F1E02272
:1008B000C2F800117047704729B1064AD269024355
:1008C000044BDA6104E0034AD2698243014BDA61E6
:1008D000704700000010024029B1064A92690243A5
:1008E000044B9A6104E0034A92698243014B9A6186
:1008F00070470000001002400F48006840F00100FF
:100900000D490860084640680C4908400A4948609B
:10091000084600680A490840074908600846006818
:1009200020F4802008600846406820F4FE004860FB
:100930004FF41F0088607047001002400000FFF86D
:10094000FFFFF6FE30B500210022002400232D4DCC
:100950006D6805F00C0121B1042905D0082923D1C7
:1009600005E0294D056022E0274D05601FE0254D7B
:100970006D6805F47012234D6D6805F4803402250E
:1009800005EB92421CB9214D554305600BE01D4D0E
:100990006D6805F400351DB11C4D5543056002E03E
:1009A000194D5543056002E0174D056000BF00BFBB
:1009B000144D6D6805F0F0010909154D6B5C056873
:1009C000DD4045600F4D6D6805F4E061090A104D8A
:1009D0006B5C4568DD4085600A4D6D6805F46051CB
:1009E000C90A0B4D6B5C4568DD40C560054D6D68FF
:1009F00005F44041890B074D6B5CC568B5FBF3F509
:100A0000056130BD0010024000127A0000093D006F
:100A1000000000201000002010B501460022002335
:100A200000204A11012A02D1094C236806E0022A5B
:100A300002D1074C236A01E0054C636A01F01F02F2
:100A4000012494401C400CB1012000E0002010BDA6
:100A50000010024001460020034A506820F0F000D8
:100A600008435060704700000010024011490968B7
:100A700021F480310F4A11601146096821F4802168
:100A80001160B0F5803F03D0B0F5802F0ED106E0A5
:100A90000849096841F48031064A116007E00549B8
:100AA000096841F4A021034A116000E000BF00BFC3
:100AB000704700000010024001460020034A5068C1
:100AC00020F4E060084350607047000000100240CE
:100AD00001460020034A506820F4605040EAC100FB
:100AE00050607047001002400149086670470000DE
:100AF0000000424202460020044B586820F47C105B
:100B000042EA01031843014B58607047001002404D
:100B100001460020034A506820F00300084350605B
:100B2000704700000010024038B5002000900024FB
:100B3000002500BF3120FFF76FFF05460098401CDD
:100B400000900098B0F5A06F01D0002DF2D03120B8
:100B5000FFF762FF08B1012400E00024204638BD01
:100B6000014601F00F000A110A2303FB0200C0B284
:100B7000704701460A2091FBF0F200FB12100A2296
:100B800091FBF2F240EA0210C0B2704703468B427A
:100B900001DA08467047934201DD1046FAE718462D
:100BA000F8E700001CB507236A460021D020FFF7B4
:100BB00021FD04464CBB9DF80000FFF7D1FF13490F
:100BC00008709DF80100FFF7CBFF104948709DF8B1
:100BD0000200FFF7C5FF0D4988709DF80300FFF77D
:100BE000BFFF0A49C8709DF80400FFF7B9FF074925
:100BF00008719DF80500FFF7B3FF044948719DF89F
:100C00000600FFF7ADFF014988711CBD14000020EC
:100C10002DE9FC5F07460C4615461E46DDE90D9A98
:100C2000DDF830803B2200212846FFF7AFFF8346E6
:100C3000FFF79FFF8DF800003B2200212046FFF7C1
:100C4000A5FF8346FFF795FF8DF8010017220021CD
:100C50003846FFF79BFF8346FFF78BFF8DF80200B6
:100C6000072201213046FFF791FF8346FFF781FFFE
:100C70008DF803001F2201214046FFF787FF8346BE
:100C8000FFF777FF8DF804000C2201214846FFF79B
:100C90007DFF8346FFF76DFF8DF80500632200217D
:100CA0005046FFF773FF8346FFF763FF8DF806009A
:100CB00007236A460021D020FFF7C2FDBDE8FC9F54
:100CC00008B501210420FFF707FE4FF40040ADF8FE
:100CD000000048208DF8030069460248FFF766FBD4
:100CE00008BD00000008014008B501210420FFF7FD
:100CF000F3FD4FF40040ADF8000014208DF8030020
:100D000003208DF8020069460148FFF74FFB08BD3C
:100D10000008014070472DE9F04780460D46164611
:100D20001F46DDF8209049463846FFF71EFC002498
:100D30000BE000BF4021404600F02FF90028F9D019
:100D4000295D404600F0C8F9641CB442F1D300BFED
:100D50004021404600F021F90028F9D049463846A4
:100D6000FFF701FCBDE8F08710B500F001F810BDF9
:100D70000CB50020019000903348006840F48030AA
:100D80003149086000BF3048006800F4003000902E
:100D90000198401C0190009818B90198B0F5A06F17
:100DA000F1D12948006800F4003010B10120009012
:100DB00001E0002000900098012843D123480068FA
:100DC00040F01000214908600846006820F0030048
:100DD00008600846006840F0020008601A48406851
:100DE000194948600846406848600846406840F431
:100DF000806048600846406820F47C1048600846DF
:100E0000406840F4E81048600846006840F0807090
:100E1000086000BF0C48006800F000700028F9D09E
:100E20000948406820F003000749486008464068C8
:100E300040F00200486000BF0348406800F00C002A
:100E40000828F9D10CBD000000100240002002402B
:100E50007047000010B51348006840F001001149C8
:100E6000086008464068104908400E494860084636
:100E700000680E4908400B4908600846006820F4E5
:100E8000802008600846406820F4FE0048604FF467
:100E90001F008860FFF768FF4FF00060044908609A
:100EA00010BD0000001002400000FFF8FFFFF6FE3A
:100EB00008ED00E021B1028842F00102028004E066
:100EC00002884FF6FE731A400280704700220288A3
:100ED0001D4B98420ED01D4B98420BD0B0F1804F65
:100EE00008D01B4B984205D01A4B984202D01A4B9F
:100EF000984204D14FF68F731A404B881A43174B10
:100F0000984207D0164B984204D04FF6FF431A4040
:100F1000CB881A4302808B8883850B8803850A4B14
:100F200098420BD0094B984208D00E4B984205D0FE
:100F30000D4B984202D00D4B984201D10B7A03869B
:100F40000123838270470000002C014000340140DF
:100F50000004004000080040000C00400010004069
:100F6000001400400040014000440140004801409E
:100F700001F40072B2F5007F00D100BFCA430280C5
:100F8000704721B1828942F40052828104E0828953
:100F90004DF6FF731A408281704702460020B1F57A
:100FA000007F00D100BF13880B400BB1012000E08F
:100FB00000207047F0B503460024002600250020DD
:100FC00040F66A17B94200D100BF1846C1F3421477
:100FD00001F01F06012707FA06F5012C01D10C309C
:100FE00004E0022C01D1103000E014301AB107687F
:100FF0002F43076002E00768AF430760F0BD0000C1
:101000002DE9F04786B005460E460024A24600BFF3
:10101000A1460027B08900B100BF2F462C8A4CF6AC
:10102000FF700440F08804432C82AC894EF6F31024
:101030000440B08831890843718908430443AC8176
:10104000AC8A4FF6FF400440B0890443AC8201A84B
:10105000FFF778FC1F48874202D1DDF810A001E0BD
:10106000DDF80CA0A88900F4004040B10AEBCA00EA
:1010700000EB0A1031684900B0FBF1F807E00AEB19
:10108000CA0000EB0A1031688900B0FBF1F8642057
:10109000B8FBF0F004012009642101FB1089A88944
:1010A00000F4004040B1322000EBC900B0FBF1F089
:1010B00000F00700044308E0322000EB091064212F
:1010C000B0FBF1F000F00F0004432C8106B0BDE846
:1010D000F087000000380140C1F3080282807047A9
:1010E00000BFFEE70FB4084B10B504A902AA03988D
:1010F00000F01CF8044602A9002000F077F9204611
:1011000010BC5DF814FB0000ED13000802E008C8F5
:10111000121F08C1002AFAD170477047002001E071
:1011200001C1121F002AFBD1704700002DE9FF4FBB
:101130008DB09B460F460446002606E025280BD0BE
:101140005A460F999047641C761C20780028F5D1E8
:1011500011B03046BDE8F08F0025A846012298491D
:1011600000E0054314F8013F203B02FA03F0084277
:10117000F7D120782E2817D114F8010F45F0040577
:101180002A280ED06FF02F022078A0F13001092913
:101190000AD808EB880102EB410100EB0108641C4E
:1011A000F2E757F8048B641C20786C280DD004DC1F
:1011B0004C2812D06A2811D104E074280DD07A2866
:1011C0000CD10AE045F4001507E0617845F480157C
:1011D000814202D1641C05F58015641C2278692ABD
:1011E00045D008DC002AB3D0582A69D0632A10D031
:1011F000642A08D13BE0702A67D0732A13D0752A7D
:101200005CD0782A5CD010465A460F999047761CDD
:10121000D3E017F8040B8DF8000000208DF80100D2
:10122000E946012003E057F8049B4FF0FF306907BF
:101230004FF0000501D40AE06D1C45450DDA8542EA
:10124000FADB19F805100029F6D106E06D1C85427D
:10125000FCDB19F805100029F8D12E4404E019F838
:10126000010B5A460F9990476D1EF8D2A5E00A204F
:101270000021CDE90801C5F3025002280DD001CFAD
:10128000C117031E71F100030DDA4FF0000CD0EB13
:101290000C006CEB01012D2308E0FF1D27F0070770
:1012A000F7E80201EDE72B0504D52B238DF8283054
:1012B00001233BE0EB0739D02023F7E70A2000E0C9
:1012C00010200021CDE9080107E01020002145F0A1
:1012D0000405CDE908014FF00808C5F302500228C3
:1012E0000FD001CF00214FF0000A2B071FD5702A25
:1012F0000DD0DDE908C38CF0100C5CEA030C0CD0B7
:1013000015E0FF1D27F00707F7E80201EBE7402291
:101310008DF828204FF0010A0BE050EA010306D0B7
:1013200030238DF828308DF8292002239A46582A38
:1013300004D024A20DF120090B9209E026A2F9E7BE
:10134000DDE90823FEF7F5FE0B9B9B5C09F8013DE8
:1013500050EA0102F4D1ADEB090020300890680793
:1013600001D44FF001080899884502DDA8EB01007F
:1013700000E000208046002506E00AA85A46405DAD
:101380000F9990476D1C761C5545F6DB04E0302024
:101390005A460F999047761CB8F10001A8F1010850
:1013A000F5DC05E019F8010B5A460F999047761CB9
:1013B0000899481E08900029F4DC641CC5E600006A
:1013C000092801003031323334353637383961621B
:1013D00063646566000000003031323334353637DF
:1013E0003839414243444546000000000A68531C16
:1013F0000B6010707047000086B0FEF7FEFEFEF72F
:101400004DFFFEF72CFFFEF7A5FF16200621052253
:101410000423CDE900210290032202210120FFF7DD
:10142000F7FB2DE0FFF7BEFB164880791549497997
:10143000144A1279134BDB78CDE90132CDE9031060
:101440001048007800900F48437882780EA1154824
:10145000FFF748FE1348FEF765FE04464FF4804050
:10146000114B22460F4900901048FFF754FC4FF4EF
:1014700080400D4B02220EA100900C48FFF74BFC60
:10148000D0E700001400002025782C2025642C20B3
:1014900025642C2025642C2025642C2025642C20F8
:1014A000256400001C0000200010014000380140AD
:1014B0000A0D0000D4140008000000201C000000E9
:1014C0000C110008F01400081C0000208404000027
:1014D0001C110008000000000102030401020304C3
:1014E00006070809020406080000000000000000CA
:04000005080000ED02
:00000001FF
